:1000000004308A000F2C0000FF00030E8301A100C2
:100010000A08A0008A010408A2007708A300780853
:10002000A4007908A5007A08A60003170D08031399
:10003000A70003170F080313A80003170C080313E6
:10004000A90003170E080313AA00831383128B1E43
:100050002B280B194C28220884002308F7002408B9
:10006000F8002508F9002608FA00270803178D0074
:100070000313280803178F000313290803178C00A4
:1000800003132A0803178E00031320088A00210E89
:100090008300FF0E7F0E09008A110A1258280A10E9
:1000A0008A100A11820728340C34013406340C00FB
:1000B0000530AE070318AF0A2F08003C0318692863
:1000C000FF3A031D67282E08003C03186928AF017A
:1000D000AE012F083102031C7A28031D7328300853
:1000E0002E0203187A282D102D08831687008312FC
:1000F000071480282D102D088316870083120710FF
:100100002F083302031C9128031D8A2832082E026F
:1001100003189128AD102D088316870083128714C9
:100120009728AD102D0883168700831287102F089B
:100130003502031CA828031DA12834082E02031829
:10014000A8282D112D088316870083120715AE28C5
:100150002D112D08831687008312071181010B11C1
:100160008A110A122B2846393A10CD306E3D61377C
:10017000610046393A10CD306E326139693761001D
:1001800046393A10CE30F2306E35610046393A10B9
:100190004639E5396100663084008313000803198D
:1001A000DE280630F800F701F70BD428F80BD32827
:1001B0007B30F700F70BDA28800BD12808006D1888
:1001C000E3280812E4280816831608128312ED1893
:1001D000EB288812EC2888168316881283126D1972
:1001E000F3280813F4280817831608138312ED194F
:1001F000FB288813FC2888178316881300008811B1
:10020000831288150230F700F70B04290729000034
:10021000831688118312881108008316081183122F
:1002200008116330F700F70B13291629EA080319A0
:100230001E29831608118312081522298316081116
:1002400083120811000083168811831288116B0E27
:10025000EC000F30EC056C08ED00DF206B080F3967
:10026000EC00ED00DF20080083160811831208114E
:1002700083168811831288110F30E600CB20DC0131
:100280005C08023C031C4C290330ED00DF200530E4
:10029000E600CB20DC0A40290230ED00DF20DC0143
:1002A0005C08033C031C60295C084F20DD00EA0168
:1002B0005D08EB000D210530E600CB20DC0A50295B
:1002C0008A110A12772C353090008A110A12782C84
:1002D00083160108C7390838810083128B16C03095
:1002E0008B0481018A110A12792C68086602F000D9
:1002F0006708F1006908031C690FF1026C086E02BF
:10030000F7006F08FA006D08031C6D0FFA027708FA
:10031000F2007A08F3007108F5007008F400730821
:10032000FC007208FB001030F600F701FA01F50C32
:10033000F40C031CA1297B08F7070318FA0A7C08B0
:10034000FA07FA0CF70CF90CF80CF60B9729790858
:10035000F1007808F00068086A02F7006B08FA00FC
:100360006908031C690FFA027708F2007A08F300A3
:100370007108F5007008F4007308FC007208FB00B7
:10038000F801F901F701FA017C08031DCA297B086D
:100390000319E4291030F6000310F40DF50DF70DE4
:1003A000FA0D7C087A02031DD7297B087702031C0B
:1003B000E0297B08F702031CFA037C08FA02031405
:1003C000F80DF90DF60BCC297908F1007808F0004A
:1003D0006C087807F8007908FA006D0803186D0FAB
:1003E000FA077A08F90008005F08003A0319FC29A7
:1003F000013A03194B2A812AE7015C08E600E9016A
:10040000E801EB01FF30EA00ED01EC00EF01EE0145
:1004100075217808E000E7015D08E600E901E801E0
:10042000EB01FF30EA00ED01EC00EF01EE01752178
:100430007808E100E7015E08E600E901E801EB0168
:10044000FF30EA00ED01EC00EF01EE0175217808C4
:10045000E2006008FE3C0318312A0130B100B0010F
:10046000342AB1016008B0006108FE3C03183C2A40
:100470000130B300B2013F2AB3016108B200620843
:10048000FE3C0318472A0130B500B4014A2AB501E1
:100490006208B400812AE7015C08E600E901E8018E
:1004A000EB01FF30EA00ED01EC01EF01EE007521F8
:1004B0007808E300E7015D08E600E901E801EB01E7
:1004C000FF30EA00ED01EC01EF01EE007521780844
:1004D000E400E7015E08E600E901E801EB01FF3016
:1004E000EA00ED01EC01EF01EE0075217808E5006E
:1004F000B1016308B000B3016408B200B50165083A
:10050000B40008008316061383120617831686129A
:1005100083128612861B8A2A8E018F018E01861F06
:100520008F2A08008222DD01DC0183160613831264
:1005300006138316861283128612861B9D2A8E014D
:100540008F018E01861FA22A0F08FA000E08F700FD
:100550000F087A02031DA42A7708DC007A08DD0060
:100560005C08F8005D08F9008A110A12802C8222CA
:10057000DD01DC018316061383120617831686122B
:1005800083128616861BC22A8E018F018E01861F5A
:10059000C72A0F08FA000E08F7000F087A02031D99
:1005A000C92A7708DC007A08DD005C08F8005D08DD
:1005B000F9008A110A12852C8222DD01DC018316E2
:1005C0000613831206138316861283128616861B61
:1005D000E72A8E018F018E01861FEC2A0F08FA0090
:1005E0000E08F7000F087A02031DEE2A7708DC00D8
:1005F0007A08DD005C08F8005D08F9008A110A122B
:100600008A2C670B042B072B4030E800082BE801ED
:1006100001306602E80768088038E900EA016908E5
:10062000EB000D21080065080C3A03191E2B063A51
:100630000319262B023A03192C2B312BEA01013026
:10064000EB000D210230E600CB20362B0130E60016
:100650000230E7000123362BEA011030EB000D21B8
:10066000362B0130EA006508EB000D2108000B086D
:10067000DC008B13831603178C170C14000000008A
:1006800083120313DC1B8B1703170C087F39031924
:100690008B2B0313DC0003170D080313DD00031776
:1006A0000F080313DE005C08E50013235D08031741
:1006B0008D0003135E0803178F0003130B08DF0080
:1006C0008B13831603178C170C1400000000831281
:1006D0000313DF1B8B1703170C0D0E0D7F39031946
:1006E0008B2B0313DC0003170D080313DD00031726
:1006F0000F080313DE005C08E50013235D080317F1
:100700008D0003135E0803178F008D0A03198F0AEB
:100710000313372B031703130800573003178D00FB
:1007200000308F00031337230800E4010408E300BE
:100730006410831B64145D0EF038DF00DF07E23EB7
:10074000E000323EE2005D080F39E007E007E20713
:10075000E93EE100E107E1075C0E0F39E107E2073E
:10076000E10DE20DE209E20D5C080F39E207DF0D51
:100770000730DE000A30E207E103031CBB2BE10770
:10078000E003031CBF2BE007DF03031CC32BDF07C1
:10079000DE03031CC72B5E30840083130730630520
:1007A0006313840762300402031963170008F7001B
:1007B000031DE22B631BE22B631AF42BE319E22BDC
:1007C0002030E52BE31563123030F707DD01040814
:1007D000DC005D10831B5D147708E50013235C08C3
:1007E000840083135D188317840A631FD22B0800CB
:1007F000800803190E2CDD010408DC005D10831B4A
:100800005D1400080C1E022C99005C088400831300
:100810005D188317840A0319850AF82B080003085A
:100820001F398300831603178715083003139900B7
:1008300002309A00A6309800903083129800FF3062
:10084000AD00831603170908C039890003131F126E
:100850009F120030031788008312870188018901E5
:1008600083130313AB01AC01B701B601B901B801A1
:10087000BB01BA014D30BC006130BD006E30BE001E
:100880007A30BF006130C0006E30C1006130C200FC
:10089000C3014630C4007230C5006530C6007330F5
:1008A000C7006130C800C9014E30CA006130CB00BA
:1008B0007230CC006130CD006E30CE006A30CF0097
:1008C0006130D000D1014D30D2006130D3006E30A4
:1008D000D4006430D5006130D6007230D700693062
:1008E000D8006E30D9006130DA00DB013429632989
:1008F0006829DC01DD01DE010130DF00F421922AEC
:100900007908B7007808B600B72A7908B9007808DE
:10091000B800DC2A7908BB007808BA008D230130C2
:10092000E600E70001235230E50013233A30E500EA
:100930001323103084003708DD003608DC009523CF
:100940000630E6000130E70001234730E5001323BD
:100950003A30E5001323103084003908DD003808F0
:10096000DC0095230C30E6000130E7000123423023
:10097000E50013233A30E5001323103084003B08D0
:10098000DD003A08DC0095230230DC00AF30E600E1
:10099000CB20DC0BC62CB708031DD22C36080D3C2F
:1009A00003181D2DB708031D1D2D36082C3C031CF4
:1009B0001D2DB908031DE02C3808443C03181D2DDB
:1009C000B908031D1D2D3808723C031C1D2DBB08E2
:1009D000031DEE2C3A082C3C03181D2DBB08031DEB
:1009E0001D2D3A085A3C031C1D2D0130E600023033
:1009F000E7000123B33003178D0000308F0003138D
:100A00003723C430DC000230DD00DE000130DF00BF
:100A1000F4213C3084008313F8230D300C1E0E2D7E
:100A200099000A300C1E122D99000230DC00FA30B9
:100A3000E600CB20DC0B172D8D23B708031D682D96
:100A400036082A3C031C682DB908031D2B2D3808D5
:100A5000253C0318682DB908031D682D38082C3C67
:100A6000031C682DBB08031D392D3A082C3C0318C4
:100A7000682DBB08031D682D3A08463C031C682DF1
:100A80000130E6000230E7000123B93003178D0082
:100A900000308F0003133723FF30DC005930DD00B6
:100AA0000130DE00DF00F421523084008313F8238C
:100AB0000D300C1E592D99000A300C1E5D2D990029
:100AC0000230DC00FA30E600CB20DC0B622D8D23F7
:100AD000B708031D6F2D36082A3C0318BB2DB70835
:100AE000031DBB2D3608453C031CBB2DB908031D57
:100AF0007D2D38082C3C0318BB2DB908031DBB2DD8
:100B000038084B3C031CBB2DBB08031D8B2D3A083A
:100B10002D3C0318BB2DBB08031DBB2D3A085A3CC6
:100B2000031CBB2D0130E6000230E7000123C0307A
:100B300003178D0000308F00031337230530DC00CE
:100B4000A230DD001630DE000130DF00F4214A3033
:100B500084008313F8230D300C1EAC2D99000A304D
:100B60000C1EB02D99000230DC00FA30E600CB20DC
:100B7000DC0BB52D8D23B708031DC22D36082C3C88
:100B800003180E2EB708031D0E2E3608463C031C14
:100B90000E2EB908031DD02D38085E3C03180E2E0A
:100BA000B908031D0E2E3808893C031C0E2EBB0805
:100BB000031DDE2D3A08563C03180E2EBB08031DFC
:100BC0000E2E3A08773C031C0E2E0130E600023050
:100BD000E7000123C63003178D0000308F00031398
:100BE0003723DC30DC001030DD000230DE00013065
:100BF000DF00F421443084008313F8230D300C1EF1
:100C0000FF2D99000A300C1E032E99000230DC00E3
:100C1000FA30E600CB20DC0B082E8D237F2C6300FE
:04400E00F22FFF3F4F
:00000001FF
;PIC16F887
;CRC=042E  CREATED="28-nov.-23 11:59"
